{
  "_format": "hh-sol-artifact-1",
  "contractName": "megalisV1",
  "sourceName": "contracts/megalisV1.sol",
  "abi": [
    {
      "inputs": [],
      "stateMutability": "nonpayable",
      "type": "constructor"
    },
    {
      "anonymous": false,
      "inputs": [
        {
          "indexed": false,
          "internalType": "address",
          "name": "_publisher",
          "type": "address"
        },
        {
          "indexed": false,
          "internalType": "string",
          "name": "_siren",
          "type": "string"
        },
        {
          "indexed": false,
          "internalType": "string",
          "name": "_url",
          "type": "string"
        },
        {
          "indexed": false,
          "internalType": "string",
          "name": "_hash",
          "type": "string"
        },
        {
          "indexed": false,
          "internalType": "uint256",
          "name": "_timestamp",
          "type": "uint256"
        }
      ],
      "name": "NewPublication",
      "type": "event"
    },
    {
      "inputs": [
        {
          "internalType": "bytes32",
          "name": "Doc_Hash",
          "type": "bytes32"
        }
      ],
      "name": "UpdateEvent",
      "outputs": [],
      "stateMutability": "nonpayable",
      "type": "function"
    },
    {
      "inputs": [
        {
          "internalType": "string",
          "name": "x",
          "type": "string"
        }
      ],
      "name": "existingInTab",
      "outputs": [
        {
          "internalType": "bool",
          "name": "",
          "type": "bool"
        }
      ],
      "stateMutability": "view",
      "type": "function"
    },
    {
      "inputs": [],
      "name": "getAllPublications",
      "outputs": [
        {
          "components": [
            {
              "internalType": "address",
              "name": "Publisher",
              "type": "address"
            },
            {
              "internalType": "string",
              "name": "Publisher_siren",
              "type": "string"
            },
            {
              "internalType": "string",
              "name": "Doc_url",
              "type": "string"
            },
            {
              "internalType": "string",
              "name": "Doc_hash",
              "type": "string"
            },
            {
              "internalType": "uint256",
              "name": "Doc_timestamp",
              "type": "uint256"
            }
          ],
          "internalType": "struct megalisV1.Publication[]",
          "name": "",
          "type": "tuple[]"
        }
      ],
      "stateMutability": "view",
      "type": "function"
    },
    {
      "inputs": [],
      "name": "getAllSirens",
      "outputs": [
        {
          "internalType": "string[]",
          "name": "",
          "type": "string[]"
        }
      ],
      "stateMutability": "view",
      "type": "function"
    },
    {
      "inputs": [
        {
          "internalType": "string",
          "name": "publisher_siren",
          "type": "string"
        }
      ],
      "name": "getSirenPublications",
      "outputs": [
        {
          "components": [
            {
              "internalType": "address",
              "name": "Publisher",
              "type": "address"
            },
            {
              "internalType": "string",
              "name": "Publisher_siren",
              "type": "string"
            },
            {
              "internalType": "string",
              "name": "Doc_url",
              "type": "string"
            },
            {
              "internalType": "string",
              "name": "Doc_hash",
              "type": "string"
            },
            {
              "internalType": "uint256",
              "name": "Doc_timestamp",
              "type": "uint256"
            }
          ],
          "internalType": "struct megalisV1.Publication[]",
          "name": "",
          "type": "tuple[]"
        }
      ],
      "stateMutability": "view",
      "type": "function"
    },
    {
      "inputs": [
        {
          "internalType": "string",
          "name": "publisher_siren",
          "type": "string"
        }
      ],
      "name": "listOnGoingPublications",
      "outputs": [],
      "stateMutability": "nonpayable",
      "type": "function"
    },
    {
      "inputs": [
        {
          "internalType": "string",
          "name": "publisher_siren",
          "type": "string"
        },
        {
          "internalType": "string",
          "name": "doc_url",
          "type": "string"
        },
        {
          "internalType": "string",
          "name": "doc_hash",
          "type": "string"
        }
      ],
      "name": "publish",
      "outputs": [],
      "stateMutability": "nonpayable",
      "type": "function"
    },
    {
      "inputs": [
        {
          "internalType": "uint256",
          "name": "",
          "type": "uint256"
        }
      ],
      "name": "tab_publisher",
      "outputs": [
        {
          "internalType": "string",
          "name": "",
          "type": "string"
        }
      ],
      "stateMutability": "view",
      "type": "function"
    }
  ],
  "bytecode": "0x60806040523480156200001157600080fd5b506200004260405180610100016040528060c6815260200162001b4260c691396200004860201b62000d041760201c565b620001dc565b620000e8816040516024016200005f919062000155565b6040516020818303038152906040527f41304fac000000000000000000000000000000000000000000000000000000007bffffffffffffffffffffffffffffffffffffffffffffffffffffffff19166020820180517bffffffffffffffffffffffffffffffffffffffffffffffffffffffff8381831617835250505050620000eb60201b60201c565b50565b60008151905060006a636f6e736f6c652e6c6f679050602083016000808483855afa5050505050565b6000620001218262000179565b6200012d818562000184565b93506200013f81856020860162000195565b6200014a81620001cb565b840191505092915050565b6000602082019050818103600083015262000171818462000114565b905092915050565b600081519050919050565b600082825260208201905092915050565b60005b83811015620001b557808201518184015260208101905062000198565b83811115620001c5576000848401525b50505050565b6000601f19601f8301169050919050565b61195680620001ec6000396000f3fe608060405234801561001057600080fd5b50600436106100885760003560e01c806363202be01161005b57806363202be0146101275780636d25e377146101435780637358e1611461015f578063f0f2653e1461017d57610088565b80631a0526041461008d5780631b4e8bda146100ab5780632da43503146100c7578063385f13f2146100f7575b600080fd5b6100956101ad565b6040516100a29190611427565b60405180910390f35b6100c560048036038101906100c09190610f24565b6102ce565b005b6100e160048036038101906100dc9190610f24565b6102d1565b6040516100ee919061146b565b60405180910390f35b610111600480360381019061010c9190610ffc565b6103a5565b60405161011e9190611486565b60405180910390f35b610141600480360381019061013c9190610efb565b610451565b005b61015d60048036038101906101589190610f65565b610454565b005b610167610618565b6040516101749190611449565b60405180910390f35b61019760048036038101906101929190610f24565b610a29565b6040516101a49190611449565b60405180910390f35b60606000600180549050116101f7576040517f08c379a00000000000000000000000000000000000000000000000000000000081526004016101ee906114c8565b60405180910390fd5b6001805480602002602001604051908101604052809291908181526020016000905b828210156102c557838290600052602060002001805461023890611707565b80601f016020809104026020016040519081016040528092919081815260200182805461026490611707565b80156102b15780601f10610286576101008083540402835291602001916102b1565b820191906000526020600020905b81548152906001019060200180831161029457829003601f168201915b505050505081526020019060010190610219565b50505050905090565b50565b600080600090505b60018054905081101561039a57826040516020016102f79190611391565b6040516020818303038152906040528051906020012060018281548110610347577f4e487b7100000000000000000000000000000000000000000000000000000000600052603260045260246000fd5b9060005260206000200160405160200161036191906113a8565b6040516020818303038152906040528051906020012014156103875760019150506103a0565b80806103929061176a565b9150506102d9565b50600090505b919050565b600181815481106103b557600080fd5b9060005260206000200160009150905080546103d090611707565b80601f01602080910402602001604051908101604052809291908181526020018280546103fc90611707565b80156104495780601f1061041e57610100808354040283529160200191610449565b820191906000526020600020905b81548152906001019060200180831161042c57829003601f168201915b505050505081565b50565b6000836040516104649190611391565b90815260200160405180910390206040518060a001604052803373ffffffffffffffffffffffffffffffffffffffff16815260200185815260200184815260200183815260200142815250908060018154018082558091505060019003906000526020600020906005020160009091909190915060008201518160000160006101000a81548173ffffffffffffffffffffffffffffffffffffffff021916908373ffffffffffffffffffffffffffffffffffffffff160217905550602082015181600101908051906020019061053b929190610dc6565b506040820151816002019080519060200190610558929190610dc6565b506060820151816003019080519060200190610575929190610dc6565b506080820151816004015550506000151561058f846102d1565b151514156105d4576001839080600181540180825580915050600190039060005260206000200160009091909190915090805190602001906105d2929190610dc6565b505b7f2d2b7365c14f941614920b58c2060d5636687af67cad7e5c9cce9d22e4d2a648338484844260405161060b9594939291906113bf565b60405180910390a1505050565b6060600060018054905011610662576040517f08c379a0000000000000000000000000000000000000000000000000000000008152600401610659906114a8565b60405180910390fd5b606060005b600180549050811015610a215760005b6000600183815481106106b3577f4e487b7100000000000000000000000000000000000000000000000000000000600052603260045260246000fd5b906000526020600020016040516106ca91906113a8565b908152602001604051809103902080549050811015610a0d5760006001838154811061071f577f4e487b7100000000000000000000000000000000000000000000000000000000600052603260045260246000fd5b9060005260206000200160405161073691906113a8565b9081526020016040518091039020818154811061077c577f4e487b7100000000000000000000000000000000000000000000000000000000600052603260045260246000fd5b90600052602060002090600502016040518060a00160405290816000820160009054906101000a900473ffffffffffffffffffffffffffffffffffffffff1673ffffffffffffffffffffffffffffffffffffffff1673ffffffffffffffffffffffffffffffffffffffff1681526020016001820180546107fb90611707565b80601f016020809104026020016040519081016040528092919081815260200182805461082790611707565b80156108745780601f1061084957610100808354040283529160200191610874565b820191906000526020600020905b81548152906001019060200180831161085757829003601f168201915b5050505050815260200160028201805461088d90611707565b80601f01602080910402602001604051908101604052809291908181526020018280546108b990611707565b80156109065780601f106108db57610100808354040283529160200191610906565b820191906000526020600020905b8154815290600101906020018083116108e957829003601f168201915b5050505050815260200160038201805461091f90611707565b80601f016020809104026020016040519081016040528092919081815260200182805461094b90611707565b80156109985780601f1061096d57610100808354040283529160200191610998565b820191906000526020600020905b81548152906001019060200180831161097b57829003601f168201915b505050505081526020016004820154815250508382846109b8919061161d565b815181106109ef577f4e487b7100000000000000000000000000000000000000000000000000000000600052603260045260246000fd5b60200260200101819052508080610a059061176a565b915050610677565b508080610a199061176a565b915050610667565b508091505090565b6060610a34826102d1565b610a73576040517f08c379a0000000000000000000000000000000000000000000000000000000008152600401610a6a906114e8565b60405180910390fd5b600082604051610a839190611391565b9081526020016040518091039020805480602002602001604051908101604052809291908181526020016000905b82821015610cf957838290600052602060002090600502016040518060a00160405290816000820160009054906101000a900473ffffffffffffffffffffffffffffffffffffffff1673ffffffffffffffffffffffffffffffffffffffff1673ffffffffffffffffffffffffffffffffffffffff168152602001600182018054610b3a90611707565b80601f0160208091040260200160405190810160405280929190818152602001828054610b6690611707565b8015610bb35780601f10610b8857610100808354040283529160200191610bb3565b820191906000526020600020905b815481529060010190602001808311610b9657829003601f168201915b50505050508152602001600282018054610bcc90611707565b80601f0160208091040260200160405190810160405280929190818152602001828054610bf890611707565b8015610c455780601f10610c1a57610100808354040283529160200191610c45565b820191906000526020600020905b815481529060010190602001808311610c2857829003601f168201915b50505050508152602001600382018054610c5e90611707565b80601f0160208091040260200160405190810160405280929190818152602001828054610c8a90611707565b8015610cd75780601f10610cac57610100808354040283529160200191610cd7565b820191906000526020600020905b815481529060010190602001808311610cba57829003601f168201915b5050505050815260200160048201548152505081526020019060010190610ab1565b505050509050919050565b610d9a81604051602401610d189190611486565b6040516020818303038152906040527f41304fac000000000000000000000000000000000000000000000000000000007bffffffffffffffffffffffffffffffffffffffffffffffffffffffff19166020820180517bffffffffffffffffffffffffffffffffffffffffffffffffffffffff8381831617835250505050610d9d565b50565b60008151905060006a636f6e736f6c652e6c6f679050602083016000808483855afa5050505050565b828054610dd290611707565b90600052602060002090601f016020900481019282610df45760008555610e3b565b82601f10610e0d57805160ff1916838001178555610e3b565b82800160010185558215610e3b579182015b82811115610e3a578251825591602001919060010190610e1f565b5b509050610e489190610e4c565b5090565b5b80821115610e65576000816000905550600101610e4d565b5090565b6000610e7c610e778461152d565b611508565b905082815260208101848484011115610e9457600080fd5b610e9f8482856116c5565b509392505050565b600081359050610eb6816118f2565b92915050565b600082601f830112610ecd57600080fd5b8135610edd848260208601610e69565b91505092915050565b600081359050610ef581611909565b92915050565b600060208284031215610f0d57600080fd5b6000610f1b84828501610ea7565b91505092915050565b600060208284031215610f3657600080fd5b600082013567ffffffffffffffff811115610f5057600080fd5b610f5c84828501610ebc565b91505092915050565b600080600060608486031215610f7a57600080fd5b600084013567ffffffffffffffff811115610f9457600080fd5b610fa086828701610ebc565b935050602084013567ffffffffffffffff811115610fbd57600080fd5b610fc986828701610ebc565b925050604084013567ffffffffffffffff811115610fe657600080fd5b610ff286828701610ebc565b9150509250925092565b60006020828403121561100e57600080fd5b600061101c84828501610ee6565b91505092915050565b60006110318383611164565b905092915050565b600061104583836112ef565b905092915050565b61105681611673565b82525050565b61106581611673565b82525050565b600061107682611593565b61108081856115ce565b9350836020820285016110928561155e565b8060005b858110156110ce57848403895281516110af8582611025565b94506110ba836115b4565b925060208a01995050600181019050611096565b50829750879550505050505092915050565b60006110eb8261159e565b6110f581856115df565b9350836020820285016111078561156e565b8060005b8581101561114357848403895281516111248582611039565b945061112f836115c1565b925060208a0199505060018101905061110b565b50829750879550505050505092915050565b61115e81611685565b82525050565b600061116f826115a9565b61117981856115f0565b93506111898185602086016116d4565b61119281611840565b840191505092915050565b60006111a8826115a9565b6111b28185611601565b93506111c28185602086016116d4565b6111cb81611840565b840191505092915050565b60006111e1826115a9565b6111eb8185611612565b93506111fb8185602086016116d4565b80840191505092915050565b6000815461121481611707565b61121e8186611612565b94506001821660008114611239576001811461124a5761127d565b60ff1983168652818601935061127d565b6112538561157e565b60005b8381101561127557815481890152600182019150602081019050611256565b838801955050505b50505092915050565b6000611293601c83611601565b915061129e82611851565b602082019050919050565b60006112b6601f83611601565b91506112c18261187a565b602082019050919050565b60006112d9603483611601565b91506112e4826118a3565b604082019050919050565b600060a083016000830151611307600086018261104d565b506020830151848203602086015261131f8282611164565b915050604083015184820360408601526113398282611164565b915050606083015184820360608601526113538282611164565b91505060808301516113686080860182611373565b508091505092915050565b61137c816116bb565b82525050565b61138b816116bb565b82525050565b600061139d82846111d6565b915081905092915050565b60006113b48284611207565b915081905092915050565b600060a0820190506113d4600083018861105c565b81810360208301526113e6818761119d565b905081810360408301526113fa818661119d565b9050818103606083015261140e818561119d565b905061141d6080830184611382565b9695505050505050565b60006020820190508181036000830152611441818461106b565b905092915050565b6000602082019050818103600083015261146381846110e0565b905092915050565b60006020820190506114806000830184611155565b92915050565b600060208201905081810360008301526114a0818461119d565b905092915050565b600060208201905081810360008301526114c181611286565b9050919050565b600060208201905081810360008301526114e1816112a9565b9050919050565b60006020820190508181036000830152611501816112cc565b9050919050565b6000611512611523565b905061151e8282611739565b919050565b6000604051905090565b600067ffffffffffffffff82111561154857611547611811565b5b61155182611840565b9050602081019050919050565b6000819050602082019050919050565b6000819050602082019050919050565b60008190508160005260206000209050919050565b600081519050919050565b600081519050919050565b600081519050919050565b6000602082019050919050565b6000602082019050919050565b600082825260208201905092915050565b600082825260208201905092915050565b600082825260208201905092915050565b600082825260208201905092915050565b600081905092915050565b6000611628826116bb565b9150611633836116bb565b9250827fffffffffffffffffffffffffffffffffffffffffffffffffffffffffffffffff03821115611668576116676117b3565b5b828201905092915050565b600061167e8261169b565b9050919050565b60008115159050919050565b6000819050919050565b600073ffffffffffffffffffffffffffffffffffffffff82169050919050565b6000819050919050565b82818337600083830152505050565b60005b838110156116f25780820151818401526020810190506116d7565b83811115611701576000848401525b50505050565b6000600282049050600182168061171f57607f821691505b60208210811415611733576117326117e2565b5b50919050565b61174282611840565b810181811067ffffffffffffffff8211171561176157611760611811565b5b80604052505050565b6000611775826116bb565b91507fffffffffffffffffffffffffffffffffffffffffffffffffffffffffffffffff8214156117a8576117a76117b3565b5b600182019050919050565b7f4e487b7100000000000000000000000000000000000000000000000000000000600052601160045260246000fd5b7f4e487b7100000000000000000000000000000000000000000000000000000000600052602260045260246000fd5b7f4e487b7100000000000000000000000000000000000000000000000000000000600052604160045260246000fd5b6000601f19601f8301169050919050565b7f496c206e2079206120617563756e65207075626c69636174696f6e2e00000000600082015250565b7f496c206e2079206120657520617563756e65207075626c69636174696f6e2e00600082015250565b7f496c206e2079206120706173206465207075626c69636174696f6e20736f757360008201527f206365206e756d65726f20646520536972656e2e000000000000000000000000602082015250565b6118fb81611691565b811461190657600080fd5b50565b611912816116bb565b811461191d57600080fd5b5056fea2646970667358221220b8b9a4f76e270a17dd361a20ce301c58dfc29d09741a605ceb1f9f28287ffc7d64736f6c634300080400334c6520536d61727420436f6e74726163742061206269656e20657465206465706c6f79652e20496c20766f7573207065726d6574747261206465207075626c69657220737572206c6120626c6f636b636861696e20756e20646f63756d656e742028736f6e2055524c20657420736f6e204861736829206176656320736f6e20686f726f64617461676520657420756e206e756d65726f2064276964656e74696669636174696f6e2070726f706f7265206120766f74726520636f6c6c65637469766974652e",
  "linkReferences": {},
  "deployedLinkReferences": {}
}