{
  "_format": "hh-sol-artifact-1",
  "contractName": "megalisV2",
  "sourceName": "contracts/megalisV2.sol",
  "abi": [
    {
      "inputs": [],
      "stateMutability": "nonpayable",
      "type": "constructor"
    },
    {
      "anonymous": false,
      "inputs": [
        {
          "indexed": false,
          "internalType": "address",
          "name": "_publisher",
          "type": "address"
        },
        {
          "indexed": true,
          "internalType": "string",
          "name": "_siren",
          "type": "string"
        },
        {
          "indexed": false,
          "internalType": "string",
          "name": "_url",
          "type": "string"
        },
        {
          "indexed": true,
          "internalType": "string",
          "name": "_hash",
          "type": "string"
        },
        {
          "indexed": true,
          "internalType": "uint256",
          "name": "_timestamp",
          "type": "uint256"
        },
        {
          "indexed": false,
          "internalType": "enum megalisV2.StateType",
          "name": "_state",
          "type": "uint8"
        }
      ],
      "name": "NewPublication",
      "type": "event"
    },
    {
      "inputs": [
        {
          "internalType": "bytes32",
          "name": "Doc_Hash",
          "type": "bytes32"
        }
      ],
      "name": "UpdateEvent",
      "outputs": [],
      "stateMutability": "nonpayable",
      "type": "function"
    },
    {
      "inputs": [
        {
          "internalType": "string",
          "name": "x",
          "type": "string"
        }
      ],
      "name": "existingInTab",
      "outputs": [
        {
          "internalType": "bool",
          "name": "",
          "type": "bool"
        }
      ],
      "stateMutability": "view",
      "type": "function"
    },
    {
      "inputs": [],
      "name": "getAllPublications",
      "outputs": [
        {
          "components": [
            {
              "internalType": "address",
              "name": "Publisher",
              "type": "address"
            },
            {
              "internalType": "string",
              "name": "Publisher_siren",
              "type": "string"
            },
            {
              "internalType": "string",
              "name": "Doc_url",
              "type": "string"
            },
            {
              "internalType": "string",
              "name": "Doc_hash",
              "type": "string"
            },
            {
              "internalType": "uint256",
              "name": "Doc_timestamp",
              "type": "uint256"
            },
            {
              "internalType": "enum megalisV2.StateType",
              "name": "State",
              "type": "uint8"
            }
          ],
          "internalType": "struct megalisV2.Publication[]",
          "name": "",
          "type": "tuple[]"
        }
      ],
      "stateMutability": "view",
      "type": "function"
    },
    {
      "inputs": [],
      "name": "getAllSirens",
      "outputs": [
        {
          "internalType": "string[]",
          "name": "",
          "type": "string[]"
        }
      ],
      "stateMutability": "view",
      "type": "function"
    },
    {
      "inputs": [
        {
          "internalType": "string",
          "name": "publisher_siren",
          "type": "string"
        }
      ],
      "name": "getSirenPublications",
      "outputs": [
        {
          "components": [
            {
              "internalType": "address",
              "name": "Publisher",
              "type": "address"
            },
            {
              "internalType": "string",
              "name": "Publisher_siren",
              "type": "string"
            },
            {
              "internalType": "string",
              "name": "Doc_url",
              "type": "string"
            },
            {
              "internalType": "string",
              "name": "Doc_hash",
              "type": "string"
            },
            {
              "internalType": "uint256",
              "name": "Doc_timestamp",
              "type": "uint256"
            },
            {
              "internalType": "enum megalisV2.StateType",
              "name": "State",
              "type": "uint8"
            }
          ],
          "internalType": "struct megalisV2.Publication[]",
          "name": "",
          "type": "tuple[]"
        }
      ],
      "stateMutability": "view",
      "type": "function"
    },
    {
      "inputs": [
        {
          "internalType": "string",
          "name": "publisher_siren",
          "type": "string"
        }
      ],
      "name": "listOnGoingPublications",
      "outputs": [],
      "stateMutability": "nonpayable",
      "type": "function"
    },
    {
      "inputs": [
        {
          "internalType": "string",
          "name": "publisher_siren",
          "type": "string"
        },
        {
          "internalType": "string",
          "name": "doc_url",
          "type": "string"
        },
        {
          "internalType": "string",
          "name": "doc_hash",
          "type": "string"
        }
      ],
      "name": "publish",
      "outputs": [],
      "stateMutability": "nonpayable",
      "type": "function"
    },
    {
      "inputs": [
        {
          "internalType": "uint256",
          "name": "",
          "type": "uint256"
        }
      ],
      "name": "tab_publisher",
      "outputs": [
        {
          "internalType": "string",
          "name": "",
          "type": "string"
        }
      ],
      "stateMutability": "view",
      "type": "function"
    }
  ],
  "bytecode": "0x60806040523480156200001157600080fd5b506200004260405180610100016040528060c6815260200162001b6360c691396200004860201b62000e2f1760201c565b620001dc565b620000e8816040516024016200005f919062000155565b6040516020818303038152906040527f41304fac000000000000000000000000000000000000000000000000000000007bffffffffffffffffffffffffffffffffffffffffffffffffffffffff19166020820180517bffffffffffffffffffffffffffffffffffffffffffffffffffffffff8381831617835250505050620000eb60201b60201c565b50565b60008151905060006a636f6e736f6c652e6c6f679050602083016000808483855afa5050505050565b6000620001218262000179565b6200012d818562000184565b93506200013f81856020860162000195565b6200014a81620001cb565b840191505092915050565b6000602082019050818103600083015262000171818462000114565b905092915050565b600081519050919050565b600082825260208201905092915050565b60005b83811015620001b557808201518184015260208101905062000198565b83811115620001c5576000848401525b50505050565b6000601f19601f8301169050919050565b61197780620001ec6000396000f3fe608060405234801561001057600080fd5b50600436106100885760003560e01c806363202be01161005b57806363202be0146101275780636d25e377146101435780637358e1611461015f578063f0f2653e1461017d57610088565b80631a0526041461008d5780631b4e8bda146100ab5780632da43503146100c7578063385f13f2146100f7575b600080fd5b6100956101ad565b6040516100a291906114e1565b60405180910390f35b6100c560048036038101906100c0919061104f565b610298565b005b6100e160048036038101906100dc919061104f565b61029b565b6040516100ee9190611525565b60405180910390f35b610111600480360381019061010c9190611127565b61036f565b60405161011e9190611540565b60405180910390f35b610141600480360381019061013c9190611026565b61041b565b005b61015d60048036038101906101589190611090565b61041e565b005b6101676106a1565b6040516101749190611503565b60405180910390f35b6101976004803603810190610192919061104f565b610b03565b6040516101a49190611503565b60405180910390f35b60606000600280549050116101c157600080fd5b6002805480602002602001604051908101604052809291908181526020016000905b8282101561028f57838290600052602060002001805461020290611786565b80601f016020809104026020016040519081016040528092919081815260200182805461022e90611786565b801561027b5780601f106102505761010080835404028352916020019161027b565b820191906000526020600020905b81548152906001019060200180831161025e57829003601f168201915b5050505050815260200190600101906101e3565b50505050905090565b50565b600080600090505b60028054905081101561036457826040516020016102c19190611475565b6040516020818303038152906040528051906020012060028281548110610311577f4e487b7100000000000000000000000000000000000000000000000000000000600052603260045260246000fd5b9060005260206000200160405160200161032b919061148c565b60405160208183030381529060405280519060200120141561035157600191505061036a565b808061035c906117e9565b9150506102a3565b50600090505b919050565b6002818154811061037f57600080fd5b90600052602060002001600091509050805461039a90611786565b80601f01602080910402602001604051908101604052809291908181526020018280546103c690611786565b80156104135780601f106103e857610100808354040283529160200191610413565b820191906000526020600020905b8154815290600101906020018083116103f657829003601f168201915b505050505081565b50565b60018360405161042e9190611475565b90815260200160405180910390206040518060c001604052803373ffffffffffffffffffffffffffffffffffffffff168152602001858152602001848152602001838152602001428152602001600060018111156104b5577f4e487b7100000000000000000000000000000000000000000000000000000000600052602160045260246000fd5b815250908060018154018082558091505060019003906000526020600020906006020160009091909190915060008201518160000160006101000a81548173ffffffffffffffffffffffffffffffffffffffff021916908373ffffffffffffffffffffffffffffffffffffffff1602179055506020820151816001019080519060200190610544929190610ef1565b506040820151816002019080519060200190610561929190610ef1565b50606082015181600301908051906020019061057e929190610ef1565b506080820151816004015560a08201518160050160006101000a81548160ff021916908360018111156105da577f4e487b7100000000000000000000000000000000000000000000000000000000600052602160045260246000fd5b02179055505050600015156105ee8461029b565b1515141561063357600283908060018154018082558091505060019003906000526020600020016000909190919091509080519060200190610631929190610ef1565b505b42816040516106429190611475565b6040518091039020846040516106589190611475565b60405180910390207f58e6074a2b0ecc6cf2a02155cde0d53cd414bba53744e470d8ee698b62068ceb33866000604051610694939291906114a3565b60405180910390a4505050565b60606000600280549050116106b557600080fd5b606060005b600280549050811015610afb5760005b600160028381548110610706577f4e487b7100000000000000000000000000000000000000000000000000000000600052603260045260246000fd5b9060005260206000200160405161071d919061148c565b908152602001604051809103902080549050811015610ae757600160028381548110610772577f4e487b7100000000000000000000000000000000000000000000000000000000600052603260045260246000fd5b90600052602060002001604051610789919061148c565b908152602001604051809103902081815481106107cf577f4e487b7100000000000000000000000000000000000000000000000000000000600052603260045260246000fd5b90600052602060002090600602016040518060c00160405290816000820160009054906101000a900473ffffffffffffffffffffffffffffffffffffffff1673ffffffffffffffffffffffffffffffffffffffff1673ffffffffffffffffffffffffffffffffffffffff16815260200160018201805461084e90611786565b80601f016020809104026020016040519081016040528092919081815260200182805461087a90611786565b80156108c75780601f1061089c576101008083540402835291602001916108c7565b820191906000526020600020905b8154815290600101906020018083116108aa57829003601f168201915b505050505081526020016002820180546108e090611786565b80601f016020809104026020016040519081016040528092919081815260200182805461090c90611786565b80156109595780601f1061092e57610100808354040283529160200191610959565b820191906000526020600020905b81548152906001019060200180831161093c57829003601f168201915b5050505050815260200160038201805461097290611786565b80601f016020809104026020016040519081016040528092919081815260200182805461099e90611786565b80156109eb5780601f106109c0576101008083540402835291602001916109eb565b820191906000526020600020905b8154815290600101906020018083116109ce57829003601f168201915b50505050508152602001600482015481526020016005820160009054906101000a900460ff166001811115610a49577f4e487b7100000000000000000000000000000000000000000000000000000000600052602160045260246000fd5b6001811115610a81577f4e487b7100000000000000000000000000000000000000000000000000000000600052602160045260246000fd5b81525050838284610a929190611677565b81518110610ac9577f4e487b7100000000000000000000000000000000000000000000000000000000600052603260045260246000fd5b60200260200101819052508080610adf906117e9565b9150506106ca565b508080610af3906117e9565b9150506106ba565b508091505090565b6060600060028054905011610b1757600080fd5b600182604051610b279190611475565b9081526020016040518091039020805480602002602001604051908101604052809291908181526020016000905b82821015610e2457838290600052602060002090600602016040518060c00160405290816000820160009054906101000a900473ffffffffffffffffffffffffffffffffffffffff1673ffffffffffffffffffffffffffffffffffffffff1673ffffffffffffffffffffffffffffffffffffffff168152602001600182018054610bde90611786565b80601f0160208091040260200160405190810160405280929190818152602001828054610c0a90611786565b8015610c575780601f10610c2c57610100808354040283529160200191610c57565b820191906000526020600020905b815481529060010190602001808311610c3a57829003601f168201915b50505050508152602001600282018054610c7090611786565b80601f0160208091040260200160405190810160405280929190818152602001828054610c9c90611786565b8015610ce95780601f10610cbe57610100808354040283529160200191610ce9565b820191906000526020600020905b815481529060010190602001808311610ccc57829003601f168201915b50505050508152602001600382018054610d0290611786565b80601f0160208091040260200160405190810160405280929190818152602001828054610d2e90611786565b8015610d7b5780601f10610d5057610100808354040283529160200191610d7b565b820191906000526020600020905b815481529060010190602001808311610d5e57829003601f168201915b50505050508152602001600482015481526020016005820160009054906101000a900460ff166001811115610dd9577f4e487b7100000000000000000000000000000000000000000000000000000000600052602160045260246000fd5b6001811115610e11577f4e487b7100000000000000000000000000000000000000000000000000000000600052602160045260246000fd5b8152505081526020019060010190610b55565b505050509050919050565b610ec581604051602401610e439190611540565b6040516020818303038152906040527f41304fac000000000000000000000000000000000000000000000000000000007bffffffffffffffffffffffffffffffffffffffffffffffffffffffff19166020820180517bffffffffffffffffffffffffffffffffffffffffffffffffffffffff8381831617835250505050610ec8565b50565b60008151905060006a636f6e736f6c652e6c6f679050602083016000808483855afa5050505050565b828054610efd90611786565b90600052602060002090601f016020900481019282610f1f5760008555610f66565b82601f10610f3857805160ff1916838001178555610f66565b82800160010185558215610f66579182015b82811115610f65578251825591602001919060010190610f4a565b5b509050610f739190610f77565b5090565b5b80821115610f90576000816000905550600101610f78565b5090565b6000610fa7610fa284611587565b611562565b905082815260208101848484011115610fbf57600080fd5b610fca848285611744565b509392505050565b600081359050610fe181611913565b92915050565b600082601f830112610ff857600080fd5b8135611008848260208601610f94565b91505092915050565b6000813590506110208161192a565b92915050565b60006020828403121561103857600080fd5b600061104684828501610fd2565b91505092915050565b60006020828403121561106157600080fd5b600082013567ffffffffffffffff81111561107b57600080fd5b61108784828501610fe7565b91505092915050565b6000806000606084860312156110a557600080fd5b600084013567ffffffffffffffff8111156110bf57600080fd5b6110cb86828701610fe7565b935050602084013567ffffffffffffffff8111156110e857600080fd5b6110f486828701610fe7565b925050604084013567ffffffffffffffff81111561111157600080fd5b61111d86828701610fe7565b9150509250925092565b60006020828403121561113957600080fd5b600061114784828501611011565b91505092915050565b600061115c83836112ad565b905092915050565b600061117083836113cf565b905092915050565b611181816116cd565b82525050565b611190816116cd565b82525050565b60006111a1826115ed565b6111ab8185611628565b9350836020820285016111bd856115b8565b8060005b858110156111f957848403895281516111da8582611150565b94506111e58361160e565b925060208a019950506001810190506111c1565b50829750879550505050505092915050565b6000611216826115f8565b6112208185611639565b935083602082028501611232856115c8565b8060005b8581101561126e578484038952815161124f8582611164565b945061125a8361161b565b925060208a01995050600181019050611236565b50829750879550505050505092915050565b611289816116df565b82525050565b61129881611732565b82525050565b6112a781611732565b82525050565b60006112b882611603565b6112c2818561164a565b93506112d2818560208601611753565b6112db816118ee565b840191505092915050565b60006112f182611603565b6112fb818561165b565b935061130b818560208601611753565b611314816118ee565b840191505092915050565b600061132a82611603565b611334818561166c565b9350611344818560208601611753565b80840191505092915050565b6000815461135d81611786565b611367818661166c565b945060018216600081146113825760018114611393576113c6565b60ff198316865281860193506113c6565b61139c856115d8565b60005b838110156113be5781548189015260018201915060208101905061139f565b838801955050505b50505092915050565b600060c0830160008301516113e76000860182611178565b50602083015184820360208601526113ff82826112ad565b9150506040830151848203604086015261141982826112ad565b9150506060830151848203606086015261143382826112ad565b91505060808301516114486080860182611466565b5060a083015161145b60a086018261128f565b508091505092915050565b61146f81611728565b82525050565b6000611481828461131f565b915081905092915050565b60006114988284611350565b915081905092915050565b60006060820190506114b86000830186611187565b81810360208301526114ca81856112e6565b90506114d9604083018461129e565b949350505050565b600060208201905081810360008301526114fb8184611196565b905092915050565b6000602082019050818103600083015261151d818461120b565b905092915050565b600060208201905061153a6000830184611280565b92915050565b6000602082019050818103600083015261155a81846112e6565b905092915050565b600061156c61157d565b905061157882826117b8565b919050565b6000604051905090565b600067ffffffffffffffff8211156115a2576115a16118bf565b5b6115ab826118ee565b9050602081019050919050565b6000819050602082019050919050565b6000819050602082019050919050565b60008190508160005260206000209050919050565b600081519050919050565b600081519050919050565b600081519050919050565b6000602082019050919050565b6000602082019050919050565b600082825260208201905092915050565b600082825260208201905092915050565b600082825260208201905092915050565b600082825260208201905092915050565b600081905092915050565b600061168282611728565b915061168d83611728565b9250827fffffffffffffffffffffffffffffffffffffffffffffffffffffffffffffffff038211156116c2576116c1611832565b5b828201905092915050565b60006116d882611708565b9050919050565b60008115159050919050565b6000819050919050565b6000819050611703826118ff565b919050565b600073ffffffffffffffffffffffffffffffffffffffff82169050919050565b6000819050919050565b600061173d826116f5565b9050919050565b82818337600083830152505050565b60005b83811015611771578082015181840152602081019050611756565b83811115611780576000848401525b50505050565b6000600282049050600182168061179e57607f821691505b602082108114156117b2576117b1611890565b5b50919050565b6117c1826118ee565b810181811067ffffffffffffffff821117156117e0576117df6118bf565b5b80604052505050565b60006117f482611728565b91507fffffffffffffffffffffffffffffffffffffffffffffffffffffffffffffffff82141561182757611826611832565b5b600182019050919050565b7f4e487b7100000000000000000000000000000000000000000000000000000000600052601160045260246000fd5b7f4e487b7100000000000000000000000000000000000000000000000000000000600052602160045260246000fd5b7f4e487b7100000000000000000000000000000000000000000000000000000000600052602260045260246000fd5b7f4e487b7100000000000000000000000000000000000000000000000000000000600052604160045260246000fd5b6000601f19601f8301169050919050565b600281106119105761190f611861565b5b50565b61191c816116eb565b811461192757600080fd5b50565b61193381611728565b811461193e57600080fd5b5056fea2646970667358221220d7124a3e0ca0012d60ba3ad9437a2c3d9987ab3be7a4ee534732d28aff0baae764736f6c634300080400334c6520536d61727420436f6e74726163742061206269656e20657465206465706c6f79652e20496c20766f7573207065726d6574747261206465207075626c69657220737572206c6120626c6f636b636861696e20756e20646f63756d656e742028736f6e2055524c20657420736f6e204861736829206176656320736f6e20686f726f64617461676520657420756e206e756d65726f2064276964656e74696669636174696f6e2070726f706f7265206120766f74726520636f6c6c65637469766974652e",
  "linkReferences": {},
  "deployedLinkReferences": {}
}