{
  "_format": "hh-sol-artifact-1",
  "contractName": "megalisV1",
  "sourceName": "contracts/megalisV1.sol",
  "abi": [
    {
      "inputs": [],
      "stateMutability": "payable",
      "type": "constructor"
    },
    {
      "anonymous": false,
      "inputs": [
        {
          "indexed": false,
          "internalType": "address",
          "name": "_publisher",
          "type": "address"
        },
        {
          "indexed": true,
          "internalType": "string",
          "name": "_siren",
          "type": "string"
        },
        {
          "indexed": false,
          "internalType": "string",
          "name": "_url",
          "type": "string"
        },
        {
          "indexed": true,
          "internalType": "bytes32",
          "name": "_hash",
          "type": "bytes32"
        },
        {
          "indexed": true,
          "internalType": "uint256",
          "name": "_timestamp",
          "type": "uint256"
        },
        {
          "indexed": false,
          "internalType": "enum megalisV1.StateType",
          "name": "_state",
          "type": "uint8"
        }
      ],
      "name": "NewPublication",
      "type": "event"
    },
    {
      "inputs": [
        {
          "internalType": "bytes32",
          "name": "Doc_Hash",
          "type": "bytes32"
        }
      ],
      "name": "deleteEvent",
      "outputs": [],
      "stateMutability": "nonpayable",
      "type": "function"
    },
    {
      "inputs": [],
      "name": "listAllPublications",
      "outputs": [],
      "stateMutability": "nonpayable",
      "type": "function"
    },
    {
      "inputs": [
        {
          "internalType": "string",
          "name": "publisher_siren",
          "type": "string"
        }
      ],
      "name": "listOnGoingPublications",
      "outputs": [],
      "stateMutability": "nonpayable",
      "type": "function"
    },
    {
      "inputs": [
        {
          "internalType": "string",
          "name": "publisher_siren",
          "type": "string"
        }
      ],
      "name": "listPublications",
      "outputs": [],
      "stateMutability": "nonpayable",
      "type": "function"
    },
    {
      "inputs": [
        {
          "internalType": "string",
          "name": "publisher_siren",
          "type": "string"
        },
        {
          "internalType": "string",
          "name": "doc_url",
          "type": "string"
        },
        {
          "internalType": "bytes32",
          "name": "doc_hash",
          "type": "bytes32"
        }
      ],
      "name": "publish",
      "outputs": [],
      "stateMutability": "nonpayable",
      "type": "function"
    }
  ],
  "bytecode": "0x608060405261003060405180610100016040528060c68152602001610b8460c6913961003560201b6103041760201c565b6101b8565b6100d1816040516024016100499190610136565b6040516020818303038152906040527f41304fac000000000000000000000000000000000000000000000000000000007bffffffffffffffffffffffffffffffffffffffffffffffffffffffff19166020820180517bffffffffffffffffffffffffffffffffffffffffffffffffffffffff83818316178352505050506100d460201b60201c565b50565b60008151905060006a636f6e736f6c652e6c6f679050602083016000808483855afa5050505050565b600061010882610158565b6101128185610163565b9350610122818560208601610174565b61012b816101a7565b840191505092915050565b6000602082019050818103600083015261015081846100fd565b905092915050565b600081519050919050565b600082825260208201905092915050565b60005b83811015610192578082015181840152602081019050610177565b838111156101a1576000848401525b50505050565b6000601f19601f8301169050919050565b6109bd806101c76000396000f3fe608060405234801561001057600080fd5b50600436106100575760003560e01c80631b4e8bda1461005c5780631cc844bc146100785780631d8ba8a9146100945780638ca783101461009e578063d60afb77146100ba575b600080fd5b6100766004803603810190610071919061050f565b6100d6565b005b610092600480360381019061008d91906104e6565b6100d9565b005b61009c6100dc565b005b6100b860048036038101906100b3919061050f565b6100de565b005b6100d460048036038101906100cf9190610550565b6100e1565b005b50565b50565b565b50565b806040516020016100f291906106a8565b604051602081830303815290604052600190805190602001906101169291906103c6565b5060006040518060c001604052803373ffffffffffffffffffffffffffffffffffffffff16815260200185815260200184815260200183815260200142815260200160006001811115610192577f4e487b7100000000000000000000000000000000000000000000000000000000600052602160045260246000fd5b815250908060018154018082558091505060019003906000526020600020906006020160009091909190915060008201518160000160006101000a81548173ffffffffffffffffffffffffffffffffffffffff021916908373ffffffffffffffffffffffffffffffffffffffff16021790555060208201518160010190805190602001906102219291906103c6565b50604082015181600201908051906020019061023e9291906103c6565b50606082015181600301556080820151816004015560a08201518160050160006101000a81548160ff021916908360018111156102a4577f4e487b7100000000000000000000000000000000000000000000000000000000600052602160045260246000fd5b021790555050504281846040516102bb9190610691565b60405180910390207f6445775bcab9ba4e2779567340c20fa4e84158fbb3b1adde853de84898d1e0c5338660006040516102f7939291906106ce565b60405180910390a4505050565b61039a81604051602401610318919061070c565b6040516020818303038152906040527f41304fac000000000000000000000000000000000000000000000000000000007bffffffffffffffffffffffffffffffffffffffffffffffffffffffff19166020820180517bffffffffffffffffffffffffffffffffffffffffffffffffffffffff838183161783525050505061039d565b50565b60008151905060006a636f6e736f6c652e6c6f679050602083016000808483855afa5050505050565b8280546103d29061084e565b90600052602060002090601f0160209004810192826103f4576000855561043b565b82601f1061040d57805160ff191683800117855561043b565b8280016001018555821561043b579182015b8281111561043a57825182559160200191906001019061041f565b5b509050610448919061044c565b5090565b5b8082111561046557600081600090555060010161044d565b5090565b600061047c61047784610753565b61072e565b90508281526020810184848401111561049457600080fd5b61049f84828561080c565b509392505050565b6000813590506104b681610970565b92915050565b600082601f8301126104cd57600080fd5b81356104dd848260208601610469565b91505092915050565b6000602082840312156104f857600080fd5b6000610506848285016104a7565b91505092915050565b60006020828403121561052157600080fd5b600082013567ffffffffffffffff81111561053b57600080fd5b610547848285016104bc565b91505092915050565b60008060006060848603121561056557600080fd5b600084013567ffffffffffffffff81111561057f57600080fd5b61058b868287016104bc565b935050602084013567ffffffffffffffff8111156105a857600080fd5b6105b4868287016104bc565b92505060406105c5868287016104a7565b9150509250925092565b6105d8816107ab565b82525050565b6105ef6105ea826107bd565b6108b1565b82525050565b6105fe816107fa565b82525050565b600061060f82610784565b610619818561078f565b935061062981856020860161081b565b61063281610948565b840191505092915050565b600061064882610784565b61065281856107a0565b935061066281856020860161081b565b80840191505092915050565b600061067b6000836107a0565b915061068682610959565b600082019050919050565b600061069d828461063d565b915081905092915050565b60006106b38261066e565b91506106bf82846105de565b60208201915081905092915050565b60006060820190506106e360008301866105cf565b81810360208301526106f58185610604565b905061070460408301846105f5565b949350505050565b600060208201905081810360008301526107268184610604565b905092915050565b6000610738610749565b90506107448282610880565b919050565b6000604051905090565b600067ffffffffffffffff82111561076e5761076d610919565b5b61077782610948565b9050602081019050919050565b600081519050919050565b600082825260208201905092915050565b600081905092915050565b60006107b6826107da565b9050919050565b6000819050919050565b60008190506107d58261095c565b919050565b600073ffffffffffffffffffffffffffffffffffffffff82169050919050565b6000610805826107c7565b9050919050565b82818337600083830152505050565b60005b8381101561083957808201518184015260208101905061081e565b83811115610848576000848401525b50505050565b6000600282049050600182168061086657607f821691505b6020821081141561087a576108796108ea565b5b50919050565b61088982610948565b810181811067ffffffffffffffff821117156108a8576108a7610919565b5b80604052505050565b6000819050919050565b7f4e487b7100000000000000000000000000000000000000000000000000000000600052602160045260246000fd5b7f4e487b7100000000000000000000000000000000000000000000000000000000600052602260045260246000fd5b7f4e487b7100000000000000000000000000000000000000000000000000000000600052604160045260246000fd5b6000601f19601f8301169050919050565b50565b6002811061096d5761096c6108bb565b5b50565b610979816107bd565b811461098457600080fd5b5056fea264697066735822122035b4b8542e11b9b2336f713f87b7ab5b5c59a5531463cdc329a01bae71e8e13164736f6c634300080400334c6520536d61727420436f6e74726163742061206269656e20657465206465706c6f79652e20496c20766f7573207065726d6574747261206465207075626c69657220737572206c6120626c6f636b636861696e20756e20646f63756d656e742028736f6e2055524c20657420736f6e204861736829206176656320736f6e20686f726f64617461676520657420756e206e756d65726f2064276964656e74696669636174696f6e2070726f706f7265206120766f74726520636f6c6c65637469766974652e",
  "linkReferences": {},
  "deployedLinkReferences": {}
}