{
  "_format": "hh-sol-artifact-1",
  "contractName": "megalisV2",
  "sourceName": "contracts/megalisV2.sol",
  "abi": [
    {
      "inputs": [],
      "stateMutability": "nonpayable",
      "type": "constructor"
    },
    {
      "anonymous": false,
      "inputs": [
        {
          "indexed": false,
          "internalType": "string",
          "name": "_siren",
          "type": "string"
        },
        {
          "indexed": false,
          "internalType": "string",
          "name": "_url",
          "type": "string"
        },
        {
          "indexed": false,
          "internalType": "uint256",
          "name": "_timestamp",
          "type": "uint256"
        }
      ],
      "name": "NewPublication",
      "type": "event"
    },
    {
      "inputs": [
        {
          "internalType": "string",
          "name": "x",
          "type": "string"
        }
      ],
      "name": "existingInTab",
      "outputs": [
        {
          "internalType": "bool",
          "name": "",
          "type": "bool"
        }
      ],
      "stateMutability": "view",
      "type": "function"
    },
    {
      "inputs": [],
      "name": "getAllSirens",
      "outputs": [
        {
          "internalType": "string[]",
          "name": "",
          "type": "string[]"
        }
      ],
      "stateMutability": "view",
      "type": "function"
    },
    {
      "inputs": [
        {
          "internalType": "string",
          "name": "publisher_siren",
          "type": "string"
        }
      ],
      "name": "getSirenPublications",
      "outputs": [
        {
          "components": [
            {
              "internalType": "string",
              "name": "Publisher_siren",
              "type": "string"
            },
            {
              "internalType": "string",
              "name": "Doc_url",
              "type": "string"
            },
            {
              "internalType": "uint256",
              "name": "Doc_timestamp",
              "type": "uint256"
            }
          ],
          "internalType": "struct megalisV2.Publication[]",
          "name": "",
          "type": "tuple[]"
        }
      ],
      "stateMutability": "view",
      "type": "function"
    },
    {
      "inputs": [
        {
          "internalType": "string",
          "name": "publisher_siren",
          "type": "string"
        },
        {
          "internalType": "string",
          "name": "doc_url",
          "type": "string"
        }
      ],
      "name": "publish",
      "outputs": [],
      "stateMutability": "nonpayable",
      "type": "function"
    },
    {
      "inputs": [
        {
          "internalType": "uint256",
          "name": "",
          "type": "uint256"
        }
      ],
      "name": "tab_publisher",
      "outputs": [
        {
          "internalType": "string",
          "name": "",
          "type": "string"
        }
      ],
      "stateMutability": "view",
      "type": "function"
    }
  ],
  "bytecode": "0x60806040523480156200001157600080fd5b50620000416040518060e0016040528060b481526020016200134460b491396200004760201b620006f31760201c565b620001db565b620000e7816040516024016200005e919062000154565b6040516020818303038152906040527f41304fac000000000000000000000000000000000000000000000000000000007bffffffffffffffffffffffffffffffffffffffffffffffffffffffff19166020820180517bffffffffffffffffffffffffffffffffffffffffffffffffffffffff8381831617835250505050620000ea60201b60201c565b50565b60008151905060006a636f6e736f6c652e6c6f679050602083016000808483855afa5050505050565b6000620001208262000178565b6200012c818562000183565b93506200013e81856020860162000194565b6200014981620001ca565b840191505092915050565b6000602082019050818103600083015262000170818462000113565b905092915050565b600081519050919050565b600082825260208201905092915050565b60005b83811015620001b457808201518184015260208101905062000197565b83811115620001c4576000848401525b50505050565b6000601f19601f8301169050919050565b61115980620001eb6000396000f3fe608060405234801561001057600080fd5b50600436106100575760003560e01c80631a0526041461005c5780632da435031461007a578063385f13f2146100aa578063c163bba7146100da578063f0f2653e146100f6575b600080fd5b610064610126565b6040516100719190610cd7565b60405180910390f35b610094600480360381019061008f91906108d5565b610247565b6040516100a19190610d1b565b60405180910390f35b6100c460048036038101906100bf9190610982565b61031b565b6040516100d19190610d36565b60405180910390f35b6100f460048036038101906100ef9190610916565b6103c7565b005b610110600480360381019061010b91906108d5565b610500565b60405161011d9190610cf9565b60405180910390f35b6060600060018054905011610170576040517f08c379a000000000000000000000000000000000000000000000000000000000815260040161016790610d9d565b60405180910390fd5b6001805480602002602001604051908101604052809291908181526020016000905b8282101561023e5783829060005260206000200180546101b190610f4a565b80601f01602080910402602001604051908101604052809291908181526020018280546101dd90610f4a565b801561022a5780601f106101ff5761010080835404028352916020019161022a565b820191906000526020600020905b81548152906001019060200180831161020d57829003601f168201915b505050505081526020019060010190610192565b50505050905090565b600080600090505b600180549050811015610310578260405160200161026d9190610ca9565b60405160208183030381529060405280519060200120600182815481106102bd577f4e487b7100000000000000000000000000000000000000000000000000000000600052603260045260246000fd5b906000526020600020016040516020016102d79190610cc0565b6040516020818303038152906040528051906020012014156102fd576001915050610316565b808061030890610fad565b91505061024f565b50600090505b919050565b6001818154811061032b57600080fd5b90600052602060002001600091509050805461034690610f4a565b80601f016020809104026020016040519081016040528092919081815260200182805461037290610f4a565b80156103bf5780601f10610394576101008083540402835291602001916103bf565b820191906000526020600020905b8154815290600101906020018083116103a257829003601f168201915b505050505081565b6000826040516103d79190610ca9565b9081526020016040518091039020604051806060016040528084815260200183815260200142815250908060018154018082558091505060019003906000526020600020906003020160009091909190915060008201518160000190805190602001906104459291906107b5565b5060208201518160010190805190602001906104629291906107b5565b506040820151816002015550506000151561047c83610247565b151514156104c1576001829080600181540180825580915050600190039060005260206000200160009091909190915090805190602001906104bf9291906107b5565b505b7f10569d93fa8981a1602bbcadab7f39859ea5b6c171d454858cbda3425b7be91a8282426040516104f493929190610d58565b60405180910390a15050565b606061050b82610247565b61054a576040517f08c379a000000000000000000000000000000000000000000000000000000000815260040161054190610dbd565b60405180910390fd5b60008260405161055a9190610ca9565b9081526020016040518091039020805480602002602001604051908101604052809291908181526020016000905b828210156106e857838290600052602060002090600302016040518060600160405290816000820180546105bb90610f4a565b80601f01602080910402602001604051908101604052809291908181526020018280546105e790610f4a565b80156106345780601f1061060957610100808354040283529160200191610634565b820191906000526020600020905b81548152906001019060200180831161061757829003601f168201915b5050505050815260200160018201805461064d90610f4a565b80601f016020809104026020016040519081016040528092919081815260200182805461067990610f4a565b80156106c65780601f1061069b576101008083540402835291602001916106c6565b820191906000526020600020905b8154815290600101906020018083116106a957829003601f168201915b5050505050815260200160028201548152505081526020019060010190610588565b505050509050919050565b610789816040516024016107079190610d36565b6040516020818303038152906040527f41304fac000000000000000000000000000000000000000000000000000000007bffffffffffffffffffffffffffffffffffffffffffffffffffffffff19166020820180517bffffffffffffffffffffffffffffffffffffffffffffffffffffffff838183161783525050505061078c565b50565b60008151905060006a636f6e736f6c652e6c6f679050602083016000808483855afa5050505050565b8280546107c190610f4a565b90600052602060002090601f0160209004810192826107e3576000855561082a565b82601f106107fc57805160ff191683800117855561082a565b8280016001018555821561082a579182015b8281111561082957825182559160200191906001019061080e565b5b509050610837919061083b565b5090565b5b8082111561085457600081600090555060010161083c565b5090565b600061086b61086684610e02565b610ddd565b90508281526020810184848401111561088357600080fd5b61088e848285610f08565b509392505050565b600082601f8301126108a757600080fd5b81356108b7848260208601610858565b91505092915050565b6000813590506108cf8161110c565b92915050565b6000602082840312156108e757600080fd5b600082013567ffffffffffffffff81111561090157600080fd5b61090d84828501610896565b91505092915050565b6000806040838503121561092957600080fd5b600083013567ffffffffffffffff81111561094357600080fd5b61094f85828601610896565b925050602083013567ffffffffffffffff81111561096c57600080fd5b61097885828601610896565b9150509250929050565b60006020828403121561099457600080fd5b60006109a2848285016108c0565b91505092915050565b60006109b78383610acc565b905092915050565b60006109cb8383610c34565b905092915050565b60006109de82610e68565b6109e88185610ea3565b9350836020820285016109fa85610e33565b8060005b85811015610a365784840389528151610a1785826109ab565b9450610a2283610e89565b925060208a019950506001810190506109fe565b50829750879550505050505092915050565b6000610a5382610e73565b610a5d8185610eb4565b935083602082028501610a6f85610e43565b8060005b85811015610aab5784840389528151610a8c85826109bf565b9450610a9783610e96565b925060208a01995050600181019050610a73565b50829750879550505050505092915050565b610ac681610ef2565b82525050565b6000610ad782610e7e565b610ae18185610ec5565b9350610af1818560208601610f17565b610afa81611083565b840191505092915050565b6000610b1082610e7e565b610b1a8185610ed6565b9350610b2a818560208601610f17565b610b3381611083565b840191505092915050565b6000610b4982610e7e565b610b538185610ee7565b9350610b63818560208601610f17565b80840191505092915050565b60008154610b7c81610f4a565b610b868186610ee7565b94506001821660008114610ba15760018114610bb257610be5565b60ff19831686528186019350610be5565b610bbb85610e53565b60005b83811015610bdd57815481890152600182019150602081019050610bbe565b838801955050505b50505092915050565b6000610bfb601f83610ed6565b9150610c0682611094565b602082019050919050565b6000610c1e603483610ed6565b9150610c29826110bd565b604082019050919050565b60006060830160008301518482036000860152610c518282610acc565b91505060208301518482036020860152610c6b8282610acc565b9150506040830151610c806040860182610c8b565b508091505092915050565b610c9481610efe565b82525050565b610ca381610efe565b82525050565b6000610cb58284610b3e565b915081905092915050565b6000610ccc8284610b6f565b915081905092915050565b60006020820190508181036000830152610cf181846109d3565b905092915050565b60006020820190508181036000830152610d138184610a48565b905092915050565b6000602082019050610d306000830184610abd565b92915050565b60006020820190508181036000830152610d508184610b05565b905092915050565b60006060820190508181036000830152610d728186610b05565b90508181036020830152610d868185610b05565b9050610d956040830184610c9a565b949350505050565b60006020820190508181036000830152610db681610bee565b9050919050565b60006020820190508181036000830152610dd681610c11565b9050919050565b6000610de7610df8565b9050610df38282610f7c565b919050565b6000604051905090565b600067ffffffffffffffff821115610e1d57610e1c611054565b5b610e2682611083565b9050602081019050919050565b6000819050602082019050919050565b6000819050602082019050919050565b60008190508160005260206000209050919050565b600081519050919050565b600081519050919050565b600081519050919050565b6000602082019050919050565b6000602082019050919050565b600082825260208201905092915050565b600082825260208201905092915050565b600082825260208201905092915050565b600082825260208201905092915050565b600081905092915050565b60008115159050919050565b6000819050919050565b82818337600083830152505050565b60005b83811015610f35578082015181840152602081019050610f1a565b83811115610f44576000848401525b50505050565b60006002820490506001821680610f6257607f821691505b60208210811415610f7657610f75611025565b5b50919050565b610f8582611083565b810181811067ffffffffffffffff82111715610fa457610fa3611054565b5b80604052505050565b6000610fb882610efe565b91507fffffffffffffffffffffffffffffffffffffffffffffffffffffffffffffffff821415610feb57610fea610ff6565b5b600182019050919050565b7f4e487b7100000000000000000000000000000000000000000000000000000000600052601160045260246000fd5b7f4e487b7100000000000000000000000000000000000000000000000000000000600052602260045260246000fd5b7f4e487b7100000000000000000000000000000000000000000000000000000000600052604160045260246000fd5b6000601f19601f8301169050919050565b7f496c206e2079206120657520617563756e65207075626c69636174696f6e2e00600082015250565b7f496c206e2079206120706173206465207075626c69636174696f6e20736f757360008201527f206365206e756d65726f20646520536972656e2e000000000000000000000000602082015250565b61111581610efe565b811461112057600080fd5b5056fea2646970667358221220c13d639700457de60bd85a1a9f1c40cc239a5c0395ac22491a018b2af1e7272f64736f6c634300080400334c6520536d61727420436f6e74726163742061206269656e20657465206465706c6f79652e20496c20766f7573207065726d6574747261206465207075626c69657220737572206c6120626c6f636b636861696e20756e20646f63756d656e742028736f6e2055524c2920657420766f747265206e756d65726f20646520636f6c6c65637469766974652028536972656e29206166696e2064652063657274696669657220736f6e20686f726f6461746167652e",
  "linkReferences": {},
  "deployedLinkReferences": {}
}