{
  "_format": "hh-sol-artifact-1",
  "contractName": "megalisV1",
  "sourceName": "contracts/megalisV1.sol",
  "abi": [
    {
      "inputs": [],
      "stateMutability": "nonpayable",
      "type": "constructor"
    },
    {
      "anonymous": false,
      "inputs": [
        {
          "indexed": false,
          "internalType": "address",
          "name": "_publisher",
          "type": "address"
        },
        {
          "indexed": false,
          "internalType": "string",
          "name": "_siren",
          "type": "string"
        },
        {
          "indexed": false,
          "internalType": "string",
          "name": "_url",
          "type": "string"
        },
        {
          "indexed": false,
          "internalType": "string",
          "name": "_hash",
          "type": "string"
        },
        {
          "indexed": false,
          "internalType": "uint256",
          "name": "_timestamp",
          "type": "uint256"
        }
      ],
      "name": "NewPublication",
      "type": "event"
    },
    {
      "inputs": [
        {
          "internalType": "string",
          "name": "x",
          "type": "string"
        }
      ],
      "name": "existingInTab",
      "outputs": [
        {
          "internalType": "bool",
          "name": "",
          "type": "bool"
        }
      ],
      "stateMutability": "view",
      "type": "function"
    },
    {
      "inputs": [],
      "name": "getAllSirens",
      "outputs": [
        {
          "internalType": "string[]",
          "name": "",
          "type": "string[]"
        }
      ],
      "stateMutability": "view",
      "type": "function"
    },
    {
      "inputs": [
        {
          "internalType": "string",
          "name": "publisher_siren",
          "type": "string"
        }
      ],
      "name": "getSirenPublications",
      "outputs": [
        {
          "components": [
            {
              "internalType": "address",
              "name": "Publisher",
              "type": "address"
            },
            {
              "internalType": "string",
              "name": "Publisher_siren",
              "type": "string"
            },
            {
              "internalType": "string",
              "name": "Doc_url",
              "type": "string"
            },
            {
              "internalType": "string",
              "name": "Doc_hash",
              "type": "string"
            },
            {
              "internalType": "uint256",
              "name": "Doc_timestamp",
              "type": "uint256"
            }
          ],
          "internalType": "struct megalisV1.Publication[]",
          "name": "",
          "type": "tuple[]"
        }
      ],
      "stateMutability": "view",
      "type": "function"
    },
    {
      "inputs": [
        {
          "internalType": "string",
          "name": "publisher_siren",
          "type": "string"
        },
        {
          "internalType": "string",
          "name": "doc_url",
          "type": "string"
        },
        {
          "internalType": "string",
          "name": "doc_hash",
          "type": "string"
        }
      ],
      "name": "publish",
      "outputs": [],
      "stateMutability": "nonpayable",
      "type": "function"
    },
    {
      "inputs": [
        {
          "internalType": "uint256",
          "name": "",
          "type": "uint256"
        }
      ],
      "name": "tab_publisher",
      "outputs": [
        {
          "internalType": "string",
          "name": "",
          "type": "string"
        }
      ],
      "stateMutability": "view",
      "type": "function"
    }
  ],
  "bytecode": "0x60806040523480156200001157600080fd5b50620000416040518060e0016040528060c081526020016200158260c091396200004760201b620008661760201c565b620001db565b620000e7816040516024016200005e919062000154565b6040516020818303038152906040527f41304fac000000000000000000000000000000000000000000000000000000007bffffffffffffffffffffffffffffffffffffffffffffffffffffffff19166020820180517bffffffffffffffffffffffffffffffffffffffffffffffffffffffff8381831617835250505050620000ea60201b60201c565b50565b60008151905060006a636f6e736f6c652e6c6f679050602083016000808483855afa5050505050565b6000620001208262000178565b6200012c818562000183565b93506200013e81856020860162000194565b6200014981620001ca565b840191505092915050565b6000602082019050818103600083015262000170818462000113565b905092915050565b600081519050919050565b600082825260208201905092915050565b60005b83811015620001b457808201518184015260208101905062000197565b83811115620001c4576000848401525b50505050565b6000601f19601f8301169050919050565b61139780620001eb6000396000f3fe608060405234801561001057600080fd5b50600436106100575760003560e01c80631a0526041461005c5780632da435031461007a578063385f13f2146100aa5780636d25e377146100da578063f0f2653e146100f6575b600080fd5b610064610126565b6040516100719190610f28565b60405180910390f35b610094600480360381019061008f9190610a48565b610247565b6040516100a19190610f6c565b60405180910390f35b6100c460048036038101906100bf9190610b20565b61031b565b6040516100d19190610f87565b60405180910390f35b6100f460048036038101906100ef9190610a89565b6103c7565b005b610110600480360381019061010b9190610a48565b61058b565b60405161011d9190610f4a565b60405180910390f35b6060600060018054905011610170576040517f08c379a000000000000000000000000000000000000000000000000000000000815260040161016790610fa9565b60405180910390fd5b6001805480602002602001604051908101604052809291908181526020016000905b8282101561023e5783829060005260206000200180546101b190611188565b80601f01602080910402602001604051908101604052809291908181526020018280546101dd90611188565b801561022a5780601f106101ff5761010080835404028352916020019161022a565b820191906000526020600020905b81548152906001019060200180831161020d57829003601f168201915b505050505081526020019060010190610192565b50505050905090565b600080600090505b600180549050811015610310578260405160200161026d9190610e92565b60405160208183030381529060405280519060200120600182815481106102bd577f4e487b7100000000000000000000000000000000000000000000000000000000600052603260045260246000fd5b906000526020600020016040516020016102d79190610ea9565b6040516020818303038152906040528051906020012014156102fd576001915050610316565b8080610308906111eb565b91505061024f565b50600090505b919050565b6001818154811061032b57600080fd5b90600052602060002001600091509050805461034690611188565b80601f016020809104026020016040519081016040528092919081815260200182805461037290611188565b80156103bf5780601f10610394576101008083540402835291602001916103bf565b820191906000526020600020905b8154815290600101906020018083116103a257829003601f168201915b505050505081565b6000836040516103d79190610e92565b90815260200160405180910390206040518060a001604052803373ffffffffffffffffffffffffffffffffffffffff16815260200185815260200184815260200183815260200142815250908060018154018082558091505060019003906000526020600020906005020160009091909190915060008201518160000160006101000a81548173ffffffffffffffffffffffffffffffffffffffff021916908373ffffffffffffffffffffffffffffffffffffffff16021790555060208201518160010190805190602001906104ae929190610928565b5060408201518160020190805190602001906104cb929190610928565b5060608201518160030190805190602001906104e8929190610928565b506080820151816004015550506000151561050284610247565b1515141561054757600183908060018154018082558091505060019003906000526020600020016000909190919091509080519060200190610545929190610928565b505b7f2d2b7365c14f941614920b58c2060d5636687af67cad7e5c9cce9d22e4d2a648338484844260405161057e959493929190610ec0565b60405180910390a1505050565b606061059682610247565b6105d5576040517f08c379a00000000000000000000000000000000000000000000000000000000081526004016105cc90610fc9565b60405180910390fd5b6000826040516105e59190610e92565b9081526020016040518091039020805480602002602001604051908101604052809291908181526020016000905b8282101561085b57838290600052602060002090600502016040518060a00160405290816000820160009054906101000a900473ffffffffffffffffffffffffffffffffffffffff1673ffffffffffffffffffffffffffffffffffffffff1673ffffffffffffffffffffffffffffffffffffffff16815260200160018201805461069c90611188565b80601f01602080910402602001604051908101604052809291908181526020018280546106c890611188565b80156107155780601f106106ea57610100808354040283529160200191610715565b820191906000526020600020905b8154815290600101906020018083116106f857829003601f168201915b5050505050815260200160028201805461072e90611188565b80601f016020809104026020016040519081016040528092919081815260200182805461075a90611188565b80156107a75780601f1061077c576101008083540402835291602001916107a7565b820191906000526020600020905b81548152906001019060200180831161078a57829003601f168201915b505050505081526020016003820180546107c090611188565b80601f01602080910402602001604051908101604052809291908181526020018280546107ec90611188565b80156108395780601f1061080e57610100808354040283529160200191610839565b820191906000526020600020905b81548152906001019060200180831161081c57829003601f168201915b5050505050815260200160048201548152505081526020019060010190610613565b505050509050919050565b6108fc8160405160240161087a9190610f87565b6040516020818303038152906040527f41304fac000000000000000000000000000000000000000000000000000000007bffffffffffffffffffffffffffffffffffffffffffffffffffffffff19166020820180517bffffffffffffffffffffffffffffffffffffffffffffffffffffffff83818316178352505050506108ff565b50565b60008151905060006a636f6e736f6c652e6c6f679050602083016000808483855afa5050505050565b82805461093490611188565b90600052602060002090601f016020900481019282610956576000855561099d565b82601f1061096f57805160ff191683800117855561099d565b8280016001018555821561099d579182015b8281111561099c578251825591602001919060010190610981565b5b5090506109aa91906109ae565b5090565b5b808211156109c75760008160009055506001016109af565b5090565b60006109de6109d98461100e565b610fe9565b9050828152602081018484840111156109f657600080fd5b610a01848285611146565b509392505050565b600082601f830112610a1a57600080fd5b8135610a2a8482602086016109cb565b91505092915050565b600081359050610a428161134a565b92915050565b600060208284031215610a5a57600080fd5b600082013567ffffffffffffffff811115610a7457600080fd5b610a8084828501610a09565b91505092915050565b600080600060608486031215610a9e57600080fd5b600084013567ffffffffffffffff811115610ab857600080fd5b610ac486828701610a09565b935050602084013567ffffffffffffffff811115610ae157600080fd5b610aed86828701610a09565b925050604084013567ffffffffffffffff811115610b0a57600080fd5b610b1686828701610a09565b9150509250925092565b600060208284031215610b3257600080fd5b6000610b4084828501610a33565b91505092915050565b6000610b558383610c88565b905092915050565b6000610b698383610df0565b905092915050565b610b7a816110fe565b82525050565b610b89816110fe565b82525050565b6000610b9a82611074565b610ba481856110af565b935083602082028501610bb68561103f565b8060005b85811015610bf25784840389528151610bd38582610b49565b9450610bde83611095565b925060208a01995050600181019050610bba565b50829750879550505050505092915050565b6000610c0f8261107f565b610c1981856110c0565b935083602082028501610c2b8561104f565b8060005b85811015610c675784840389528151610c488582610b5d565b9450610c53836110a2565b925060208a01995050600181019050610c2f565b50829750879550505050505092915050565b610c8281611110565b82525050565b6000610c938261108a565b610c9d81856110d1565b9350610cad818560208601611155565b610cb6816112c1565b840191505092915050565b6000610ccc8261108a565b610cd681856110e2565b9350610ce6818560208601611155565b610cef816112c1565b840191505092915050565b6000610d058261108a565b610d0f81856110f3565b9350610d1f818560208601611155565b80840191505092915050565b60008154610d3881611188565b610d4281866110f3565b94506001821660008114610d5d5760018114610d6e57610da1565b60ff19831686528186019350610da1565b610d778561105f565b60005b83811015610d9957815481890152600182019150602081019050610d7a565b838801955050505b50505092915050565b6000610db7601f836110e2565b9150610dc2826112d2565b602082019050919050565b6000610dda6034836110e2565b9150610de5826112fb565b604082019050919050565b600060a083016000830151610e086000860182610b71565b5060208301518482036020860152610e208282610c88565b91505060408301518482036040860152610e3a8282610c88565b91505060608301518482036060860152610e548282610c88565b9150506080830151610e696080860182610e74565b508091505092915050565b610e7d8161113c565b82525050565b610e8c8161113c565b82525050565b6000610e9e8284610cfa565b915081905092915050565b6000610eb58284610d2b565b915081905092915050565b600060a082019050610ed56000830188610b80565b8181036020830152610ee78187610cc1565b90508181036040830152610efb8186610cc1565b90508181036060830152610f0f8185610cc1565b9050610f1e6080830184610e83565b9695505050505050565b60006020820190508181036000830152610f428184610b8f565b905092915050565b60006020820190508181036000830152610f648184610c04565b905092915050565b6000602082019050610f816000830184610c79565b92915050565b60006020820190508181036000830152610fa18184610cc1565b905092915050565b60006020820190508181036000830152610fc281610daa565b9050919050565b60006020820190508181036000830152610fe281610dcd565b9050919050565b6000610ff3611004565b9050610fff82826111ba565b919050565b6000604051905090565b600067ffffffffffffffff82111561102957611028611292565b5b611032826112c1565b9050602081019050919050565b6000819050602082019050919050565b6000819050602082019050919050565b60008190508160005260206000209050919050565b600081519050919050565b600081519050919050565b600081519050919050565b6000602082019050919050565b6000602082019050919050565b600082825260208201905092915050565b600082825260208201905092915050565b600082825260208201905092915050565b600082825260208201905092915050565b600081905092915050565b60006111098261111c565b9050919050565b60008115159050919050565b600073ffffffffffffffffffffffffffffffffffffffff82169050919050565b6000819050919050565b82818337600083830152505050565b60005b83811015611173578082015181840152602081019050611158565b83811115611182576000848401525b50505050565b600060028204905060018216806111a057607f821691505b602082108114156111b4576111b3611263565b5b50919050565b6111c3826112c1565b810181811067ffffffffffffffff821117156111e2576111e1611292565b5b80604052505050565b60006111f68261113c565b91507fffffffffffffffffffffffffffffffffffffffffffffffffffffffffffffffff82141561122957611228611234565b5b600182019050919050565b7f4e487b7100000000000000000000000000000000000000000000000000000000600052601160045260246000fd5b7f4e487b7100000000000000000000000000000000000000000000000000000000600052602260045260246000fd5b7f4e487b7100000000000000000000000000000000000000000000000000000000600052604160045260246000fd5b6000601f19601f8301169050919050565b7f496c206e2079206120657520617563756e65207075626c69636174696f6e2e00600082015250565b7f496c206e2079206120706173206465207075626c69636174696f6e20736f757360008201527f206365206e756d65726f20646520536972656e2e000000000000000000000000602082015250565b6113538161113c565b811461135e57600080fd5b5056fea264697066735822122049b75cbe169fd96ca6a261672ac76aca875c10392efc11a6ba896b0ce991115f64736f6c634300080400334c6520536d61727420436f6e74726163742061206269656e20657465206465706c6f79652e20496c20766f7573207065726d6574747261206465207075626c69657220737572206c6120626c6f636b636861696e20756e20646f63756d656e742028736f6e2055524c20657420736f6e20486173682920657420766f747265206e756d65726f20646520636f6c6c65637469766974652028536972656e29206166696e2064652063657274696669657220736f6e20686f726f6461746167652e",
  "linkReferences": {},
  "deployedLinkReferences": {}
}