{
  "_format": "hh-sol-artifact-1",
  "contractName": "megalisV2",
  "sourceName": "contracts/megalisV2.sol",
  "abi": [
    {
      "inputs": [],
      "stateMutability": "nonpayable",
      "type": "constructor"
    },
    {
      "anonymous": false,
      "inputs": [
        {
          "indexed": false,
          "internalType": "address",
          "name": "_publisher",
          "type": "address"
        },
        {
          "indexed": true,
          "internalType": "string",
          "name": "_siren",
          "type": "string"
        },
        {
          "indexed": false,
          "internalType": "string",
          "name": "_url",
          "type": "string"
        },
        {
          "indexed": true,
          "internalType": "string",
          "name": "_hash",
          "type": "string"
        },
        {
          "indexed": true,
          "internalType": "uint256",
          "name": "_timestamp",
          "type": "uint256"
        },
        {
          "indexed": false,
          "internalType": "enum megalisV2.StateType",
          "name": "_state",
          "type": "uint8"
        }
      ],
      "name": "NewPublication",
      "type": "event"
    },
    {
      "inputs": [
        {
          "internalType": "bytes32",
          "name": "Doc_Hash",
          "type": "bytes32"
        }
      ],
      "name": "UpdateEvent",
      "outputs": [],
      "stateMutability": "nonpayable",
      "type": "function"
    },
    {
      "inputs": [
        {
          "internalType": "address",
          "name": "x",
          "type": "address"
        }
      ],
      "name": "existingInTab",
      "outputs": [
        {
          "internalType": "bool",
          "name": "",
          "type": "bool"
        }
      ],
      "stateMutability": "view",
      "type": "function"
    },
    {
      "inputs": [],
      "name": "getAllPublications",
      "outputs": [
        {
          "components": [
            {
              "internalType": "string",
              "name": "Publisher_siren",
              "type": "string"
            },
            {
              "internalType": "string",
              "name": "Doc_url",
              "type": "string"
            },
            {
              "internalType": "string",
              "name": "Doc_hash",
              "type": "string"
            },
            {
              "internalType": "uint256",
              "name": "Doc_timestamp",
              "type": "uint256"
            },
            {
              "internalType": "enum megalisV2.StateType",
              "name": "State",
              "type": "uint8"
            }
          ],
          "internalType": "struct megalisV2.Publication[]",
          "name": "",
          "type": "tuple[]"
        }
      ],
      "stateMutability": "view",
      "type": "function"
    },
    {
      "inputs": [],
      "name": "getAllSirens",
      "outputs": [
        {
          "internalType": "address[]",
          "name": "",
          "type": "address[]"
        }
      ],
      "stateMutability": "view",
      "type": "function"
    },
    {
      "inputs": [
        {
          "internalType": "address",
          "name": "publisher_address",
          "type": "address"
        }
      ],
      "name": "getSirenPublications",
      "outputs": [
        {
          "components": [
            {
              "internalType": "string",
              "name": "Publisher_siren",
              "type": "string"
            },
            {
              "internalType": "string",
              "name": "Doc_url",
              "type": "string"
            },
            {
              "internalType": "string",
              "name": "Doc_hash",
              "type": "string"
            },
            {
              "internalType": "uint256",
              "name": "Doc_timestamp",
              "type": "uint256"
            },
            {
              "internalType": "enum megalisV2.StateType",
              "name": "State",
              "type": "uint8"
            }
          ],
          "internalType": "struct megalisV2.Publication[]",
          "name": "",
          "type": "tuple[]"
        }
      ],
      "stateMutability": "view",
      "type": "function"
    },
    {
      "inputs": [
        {
          "internalType": "string",
          "name": "publisher_siren",
          "type": "string"
        }
      ],
      "name": "listOnGoingPublications",
      "outputs": [],
      "stateMutability": "nonpayable",
      "type": "function"
    },
    {
      "inputs": [
        {
          "internalType": "string",
          "name": "publisher_siren",
          "type": "string"
        },
        {
          "internalType": "string",
          "name": "doc_url",
          "type": "string"
        },
        {
          "internalType": "string",
          "name": "doc_hash",
          "type": "string"
        }
      ],
      "name": "publish",
      "outputs": [],
      "stateMutability": "nonpayable",
      "type": "function"
    },
    {
      "inputs": [
        {
          "internalType": "uint256",
          "name": "",
          "type": "uint256"
        }
      ],
      "name": "tab_publisher",
      "outputs": [
        {
          "internalType": "address",
          "name": "",
          "type": "address"
        }
      ],
      "stateMutability": "view",
      "type": "function"
    }
  ],
  "bytecode": "0x60806040523480156200001157600080fd5b506200004260405180610100016040528060c68152602001620019f360c691396200004860201b62000d201760201c565b620001dc565b620000e8816040516024016200005f919062000155565b6040516020818303038152906040527f41304fac000000000000000000000000000000000000000000000000000000007bffffffffffffffffffffffffffffffffffffffffffffffffffffffff19166020820180517bffffffffffffffffffffffffffffffffffffffffffffffffffffffff8381831617835250505050620000eb60201b60201c565b50565b60008151905060006a636f6e736f6c652e6c6f679050602083016000808483855afa5050505050565b6000620001218262000179565b6200012d818562000184565b93506200013f81856020860162000195565b6200014a81620001cb565b840191505092915050565b6000602082019050818103600083015262000171818462000114565b905092915050565b600081519050919050565b600082825260208201905092915050565b60005b83811015620001b557808201518184015260208101905062000198565b83811115620001c5576000848401525b50505050565b6000601f19601f8301169050919050565b61180780620001ec6000396000f3fe608060405234801561001057600080fd5b50600436106100885760003560e01c80636d25e3771161005b5780636d25e377146101135780637358e1611461012f578063ac296a9f1461014d578063f1b9e8a31461017d57610088565b80631a0526041461008d5780631b4e8bda146100ab578063385f13f2146100c757806363202be0146100f7575b600080fd5b6100956101ad565b6040516100a2919061136f565b60405180910390f35b6100c560048036038101906100c09190610f7e565b61023b565b005b6100e160048036038101906100dc9190611056565b61023e565b6040516100ee9190611316565b60405180910390f35b610111600480360381019061010c9190610f55565b61027d565b005b61012d60048036038101906101289190610fbf565b610280565b005b6101376104e8565b6040516101449190611391565b60405180910390f35b61016760048036038101906101629190610f2c565b610966565b6040516101749190611391565b60405180910390f35b61019760048036038101906101929190610f2c565b610c4b565b6040516101a491906113b3565b60405180910390f35b6060600280548060200260200160405190810160405280929190818152602001828054801561023157602002820191906000526020600020905b8160009054906101000a900473ffffffffffffffffffffffffffffffffffffffff1673ffffffffffffffffffffffffffffffffffffffff16815260200190600101908083116101e7575b5050505050905090565b50565b6002818154811061024e57600080fd5b906000526020600020016000915054906101000a900473ffffffffffffffffffffffffffffffffffffffff1681565b50565b600160003373ffffffffffffffffffffffffffffffffffffffff1673ffffffffffffffffffffffffffffffffffffffff1681526020019081526020016000206040518060a001604052808581526020018481526020018381526020014281526020016000600181111561031c577f4e487b7100000000000000000000000000000000000000000000000000000000600052602160045260246000fd5b81525090806001815401808255809150506001900390600052602060002090600502016000909190919091506000820151816000019080519060200190610364929190610de2565b506020820151816001019080519060200190610381929190610de2565b50604082015181600201908051906020019061039e929190610de2565b506060820151816003015560808201518160040160006101000a81548160ff021916908360018111156103fa577f4e487b7100000000000000000000000000000000000000000000000000000000600052602160045260246000fd5b021790555050506000151561040e33610c4b565b1515141561047a576002339080600181540180825580915050600190039060005260206000200160009091909190916101000a81548173ffffffffffffffffffffffffffffffffffffffff021916908373ffffffffffffffffffffffffffffffffffffffff1602179055505b428160405161048991906112ff565b60405180910390208460405161049f91906112ff565b60405180910390207f58e6074a2b0ecc6cf2a02155cde0d53cd414bba53744e470d8ee698b62068ceb338660006040516104db93929190611331565b60405180910390a4505050565b60608060005b60028054905081101561095e5760005b600160006002848154811061053c577f4e487b7100000000000000000000000000000000000000000000000000000000600052603260045260246000fd5b9060005260206000200160009054906101000a900473ffffffffffffffffffffffffffffffffffffffff1673ffffffffffffffffffffffffffffffffffffffff1673ffffffffffffffffffffffffffffffffffffffff1681526020019081526020016000208054905081101561094a5760016000600284815481106105ea577f4e487b7100000000000000000000000000000000000000000000000000000000600052603260045260246000fd5b9060005260206000200160009054906101000a900473ffffffffffffffffffffffffffffffffffffffff1673ffffffffffffffffffffffffffffffffffffffff1673ffffffffffffffffffffffffffffffffffffffff168152602001908152602001600020600181548110610688577f4e487b7100000000000000000000000000000000000000000000000000000000600052603260045260246000fd5b90600052602060002090600502016040518060a00160405290816000820180546106b1906115ff565b80601f01602080910402602001604051908101604052809291908181526020018280546106dd906115ff565b801561072a5780601f106106ff5761010080835404028352916020019161072a565b820191906000526020600020905b81548152906001019060200180831161070d57829003601f168201915b50505050508152602001600182018054610743906115ff565b80601f016020809104026020016040519081016040528092919081815260200182805461076f906115ff565b80156107bc5780601f10610791576101008083540402835291602001916107bc565b820191906000526020600020905b81548152906001019060200180831161079f57829003601f168201915b505050505081526020016002820180546107d5906115ff565b80601f0160208091040260200160405190810160405280929190818152602001828054610801906115ff565b801561084e5780601f106108235761010080835404028352916020019161084e565b820191906000526020600020905b81548152906001019060200180831161083157829003601f168201915b50505050508152602001600382015481526020016004820160009054906101000a900460ff1660018111156108ac577f4e487b7100000000000000000000000000000000000000000000000000000000600052602160045260246000fd5b60018111156108e4577f4e487b7100000000000000000000000000000000000000000000000000000000600052602160045260246000fd5b815250508382846108f591906114f0565b8151811061092c577f4e487b7100000000000000000000000000000000000000000000000000000000600052603260045260246000fd5b6020026020010181905250808061094290611662565b9150506104fe565b50808061095690611662565b9150506104ee565b508091505090565b6060600160008373ffffffffffffffffffffffffffffffffffffffff1673ffffffffffffffffffffffffffffffffffffffff168152602001908152602001600020805480602002602001604051908101604052809291908181526020016000905b82821015610c4057838290600052602060002090600502016040518060a00160405290816000820180546109fa906115ff565b80601f0160208091040260200160405190810160405280929190818152602001828054610a26906115ff565b8015610a735780601f10610a4857610100808354040283529160200191610a73565b820191906000526020600020905b815481529060010190602001808311610a5657829003601f168201915b50505050508152602001600182018054610a8c906115ff565b80601f0160208091040260200160405190810160405280929190818152602001828054610ab8906115ff565b8015610b055780601f10610ada57610100808354040283529160200191610b05565b820191906000526020600020905b815481529060010190602001808311610ae857829003601f168201915b50505050508152602001600282018054610b1e906115ff565b80601f0160208091040260200160405190810160405280929190818152602001828054610b4a906115ff565b8015610b975780601f10610b6c57610100808354040283529160200191610b97565b820191906000526020600020905b815481529060010190602001808311610b7a57829003601f168201915b50505050508152602001600382015481526020016004820160009054906101000a900460ff166001811115610bf5577f4e487b7100000000000000000000000000000000000000000000000000000000600052602160045260246000fd5b6001811115610c2d577f4e487b7100000000000000000000000000000000000000000000000000000000600052602160045260246000fd5b81525050815260200190600101906109c7565b505050509050919050565b600080600090505b600280549050811015610d15578273ffffffffffffffffffffffffffffffffffffffff1660028281548110610cb1577f4e487b7100000000000000000000000000000000000000000000000000000000600052603260045260246000fd5b9060005260206000200160009054906101000a900473ffffffffffffffffffffffffffffffffffffffff1673ffffffffffffffffffffffffffffffffffffffff161415610d02576001915050610d1b565b8080610d0d90611662565b915050610c53565b50600090505b919050565b610db681604051602401610d3491906113ce565b6040516020818303038152906040527f41304fac000000000000000000000000000000000000000000000000000000007bffffffffffffffffffffffffffffffffffffffffffffffffffffffff19166020820180517bffffffffffffffffffffffffffffffffffffffffffffffffffffffff8381831617835250505050610db9565b50565b60008151905060006a636f6e736f6c652e6c6f679050602083016000808483855afa5050505050565b828054610dee906115ff565b90600052602060002090601f016020900481019282610e105760008555610e57565b82601f10610e2957805160ff1916838001178555610e57565b82800160010185558215610e57579182015b82811115610e56578251825591602001919060010190610e3b565b5b509050610e649190610e68565b5090565b5b80821115610e81576000816000905550600101610e69565b5090565b6000610e98610e9384611415565b6113f0565b905082815260208101848484011115610eb057600080fd5b610ebb8482856115bd565b509392505050565b600081359050610ed28161178c565b92915050565b600081359050610ee7816117a3565b92915050565b600082601f830112610efe57600080fd5b8135610f0e848260208601610e85565b91505092915050565b600081359050610f26816117ba565b92915050565b600060208284031215610f3e57600080fd5b6000610f4c84828501610ec3565b91505092915050565b600060208284031215610f6757600080fd5b6000610f7584828501610ed8565b91505092915050565b600060208284031215610f9057600080fd5b600082013567ffffffffffffffff811115610faa57600080fd5b610fb684828501610eed565b91505092915050565b600080600060608486031215610fd457600080fd5b600084013567ffffffffffffffff811115610fee57600080fd5b610ffa86828701610eed565b935050602084013567ffffffffffffffff81111561101757600080fd5b61102386828701610eed565b925050604084013567ffffffffffffffff81111561104057600080fd5b61104c86828701610eed565b9150509250925092565b60006020828403121561106857600080fd5b600061107684828501610f17565b91505092915050565b600061108b83836110ab565b60208301905092915050565b60006110a3838361126c565b905092915050565b6110b481611546565b82525050565b6110c381611546565b82525050565b60006110d482611466565b6110de81856114a1565b93506110e983611446565b8060005b8381101561111a578151611101888261107f565b975061110c83611487565b9250506001810190506110ed565b5085935050505092915050565b600061113282611471565b61113c81856114b2565b93508360208202850161114e85611456565b8060005b8581101561118a578484038952815161116b8582611097565b945061117683611494565b925060208a01995050600181019050611152565b50829750879550505050505092915050565b6111a581611558565b82525050565b6111b4816115ab565b82525050565b6111c3816115ab565b82525050565b60006111d48261147c565b6111de81856114c3565b93506111ee8185602086016115cc565b6111f781611767565b840191505092915050565b600061120d8261147c565b61121781856114d4565b93506112278185602086016115cc565b61123081611767565b840191505092915050565b60006112468261147c565b61125081856114e5565b93506112608185602086016115cc565b80840191505092915050565b600060a083016000830151848203600086015261128982826111c9565b915050602083015184820360208601526112a382826111c9565b915050604083015184820360408601526112bd82826111c9565b91505060608301516112d260608601826112f0565b5060808301516112e560808601826111ab565b508091505092915050565b6112f9816115a1565b82525050565b600061130b828461123b565b915081905092915050565b600060208201905061132b60008301846110ba565b92915050565b600060608201905061134660008301866110ba565b81810360208301526113588185611202565b905061136760408301846111ba565b949350505050565b6000602082019050818103600083015261138981846110c9565b905092915050565b600060208201905081810360008301526113ab8184611127565b905092915050565b60006020820190506113c8600083018461119c565b92915050565b600060208201905081810360008301526113e88184611202565b905092915050565b60006113fa61140b565b90506114068282611631565b919050565b6000604051905090565b600067ffffffffffffffff8211156114305761142f611738565b5b61143982611767565b9050602081019050919050565b6000819050602082019050919050565b6000819050602082019050919050565b600081519050919050565b600081519050919050565b600081519050919050565b6000602082019050919050565b6000602082019050919050565b600082825260208201905092915050565b600082825260208201905092915050565b600082825260208201905092915050565b600082825260208201905092915050565b600081905092915050565b60006114fb826115a1565b9150611506836115a1565b9250827fffffffffffffffffffffffffffffffffffffffffffffffffffffffffffffffff0382111561153b5761153a6116ab565b5b828201905092915050565b600061155182611581565b9050919050565b60008115159050919050565b6000819050919050565b600081905061157c82611778565b919050565b600073ffffffffffffffffffffffffffffffffffffffff82169050919050565b6000819050919050565b60006115b68261156e565b9050919050565b82818337600083830152505050565b60005b838110156115ea5780820151818401526020810190506115cf565b838111156115f9576000848401525b50505050565b6000600282049050600182168061161757607f821691505b6020821081141561162b5761162a611709565b5b50919050565b61163a82611767565b810181811067ffffffffffffffff8211171561165957611658611738565b5b80604052505050565b600061166d826115a1565b91507fffffffffffffffffffffffffffffffffffffffffffffffffffffffffffffffff8214156116a05761169f6116ab565b5b600182019050919050565b7f4e487b7100000000000000000000000000000000000000000000000000000000600052601160045260246000fd5b7f4e487b7100000000000000000000000000000000000000000000000000000000600052602160045260246000fd5b7f4e487b7100000000000000000000000000000000000000000000000000000000600052602260045260246000fd5b7f4e487b7100000000000000000000000000000000000000000000000000000000600052604160045260246000fd5b6000601f19601f8301169050919050565b60028110611789576117886116da565b5b50565b61179581611546565b81146117a057600080fd5b50565b6117ac81611564565b81146117b757600080fd5b50565b6117c3816115a1565b81146117ce57600080fd5b5056fea26469706673582212206733c00ca86678f09698ce0c4973702c29709e5f70558813667f3c9acab3f47264736f6c634300080400334c6520536d61727420436f6e74726163742061206269656e20657465206465706c6f79652e20496c20766f7573207065726d6574747261206465207075626c69657220737572206c6120626c6f636b636861696e20756e20646f63756d656e742028736f6e2055524c20657420736f6e204861736829206176656320736f6e20686f726f64617461676520657420756e206e756d65726f2064276964656e74696669636174696f6e2070726f706f7265206120766f74726520636f6c6c65637469766974652e",
  "linkReferences": {},
  "deployedLinkReferences": {}
}